:020000040800F2
:10000000E012002001010008DD1700081D130008A0
:10001000D91700082D1000085B340008000000000C
:100020000000000000000000000000007D2000082B
:1000300031100008000000005D1D0008D9210008F3
:100040001B0100081B0100081B0100081B01000820
:100050001B0100081B0100081B0100081B01000810
:100060001B0100081B0100081B0100081B01000800
:100070001B0100081B0100081B0100081B010008F0
:100080001B0100081B0100081B0100081B010008E0
:100090001B0100081B0100081B0100081B010008D0
:1000A0001B0100083D2200081B0100081B0100087D
:1000B0009123000805240008212400081B010008E2
:1000C0001B0100081B0100081B0100081B010008A0
:1000D0001B01000849290008C52F0008A5310008A8
:1000E0001B0100081B0100081B010008DFF80CD0F1
:1000F00000F07EFD00480047BD470008E0120020E8
:100100000648804706480047FEE7FEE7FEE7FEE7B1
:10011000FEE7FEE7FEE7FEE7FEE7FEE7DD2100087B
:10012000ED00000840EA01039B0703D009E008C97D
:10013000121F08C0042AFAD203E011F8013B00F8AC
:10014000013B521EF9D27047D2B201E000F8012BF8
:10015000491EFBD270470022F6E710B513460A4647
:1001600004461946FFF7F0FF204610BD10B50022E7
:1001700000E0521C835C8C5CA34201D1002BF8D1BF
:10018000D8B2E1B2401A10BD0FB400B58DB010A9BD
:1001900009900B9000914FF0FF300A9000200C90D6
:1001A00005480690054807906A4609A80F9900F08F
:1001B00045FC0DB05DF814FB590A0008770A0008E9
:1001C0002DE9FF5F1D464FF0FF3BD5E90146914603
:1001D0005F464FF00008A9697F1C01988847296A8B
:1001E000824688470028F6D1BAF1FF3F0CD024F4AC
:1001F000C064002E19DD600614D5BAF12B0F09D0AA
:10020000BAF12D0F0ED103E0584604B0BDE8F09FBF
:1002100044F48064A9697F1C01988847761E824651
:10022000002E02DDBAF1300F03D0B9F1000F26D055
:1002300032E0A969761E44F400747F1C0198884757
:100240008246002E05DDBAF1780F06D0BAF1580FBC
:1002500003D0B9F1000F10D01EE0B9F1000F02D0A9
:10026000B9F1100F18D1A969761E24F400747F1C0F
:10027000019888478246102002E0082000E00A200A
:10028000814609E008FB0908A969761E44F4007458
:100290007F1C019888478246002E05DD494650465E
:1002A00000F0B8FB0028EDDAE96901988847A0055D
:1002B00002D46FF00100A8E7E00725D1600613D54E
:1002C000600502D5C8F1000000E0404629680A1D1B
:1002D0002A600968220501D5087015E0220701D5BA
:1002E000088011E008600FE02868011D296000689F
:1002F000210502D580F8008006E0210702D5A0F88C
:10030000008001E0C0F8008038467EE7F0B480EA63
:100310000102D40F4200B2EB410F02D2024608465E
:1003200011464A0042D0C30DDDB2C1F3C752AD1A27
:10033000202D35DAC1F3160141F4000204B1524216
:10034000C5F1200602FA06F12A411044B3EBD05F52
:1003500023D0C4B1012DA0EBC35009DCF0BC4FF099
:10036000004202EAC352DBB200F5000000F09DBB80
:10037000400000F1807000EBC350A0F1807040EAB3
:10038000D170490009E0490841EAC071A0EBC350AF
:1003900000F50000400800EBC350F0BC00F07CBB4F
:1003A0006142012202EB4101001BF6E7F0BC7047FD
:1003B00081F00041AAE780F00040A7E780EA01024F
:1003C00010B502F00043400022D04A001FD0010EB9
:1003D00001EB1261C0F35600C2F3560240F4000074
:1003E00042F40002A0FB022000047F39140400D074
:1003F000401C50EA124001D44000491EC2B20C0613
:1004000004EBD010401C4008802A02D003E00020FA
:1004100010BD20F00100002900DA0020184310BDB3
:1004200030B480EA010202F0004530F0004221F0D1
:10043000004013D090B1C30DD40DC2F31601C0F328
:100440001600E41A41F4000140F400027D349142A8
:1004500001D3641C00E04900002C02DA30BC00200B
:1004600070474FF400000023914201D3891A0343DF
:1004700040084FEA4101F7D151B1914202D14FF00A
:10048000004105E002D24FF0010101E06FF00101EF
:1004900003EBC450284430BC00F0FEBA2DE9FE4FF7
:1004A000804681EA0300C00F0C46009021F0004115
:1004B00023F00045B8EB0200A94105D24046214691
:1004C00090461C460B46024623F00040104347D09E
:1004D000270DC7F30A00C3F30A510290401A019096
:1004E00040286BDAC3F3130040F4801B0098924657
:1004F00020B10023D2EB030A63EB0B0B01985946A2
:10050000C0F14002504600F054FA06460D465046EF
:100510005946019A00F06CFA10EB08006141002482
:1005200087EA115284EAE7731A4340D0009A62B313
:10053000019A012A4FEA075215DC001B61EB020108
:100540004FF0004202EA0752CDE90042001C41F59B
:10055000801132462B4600F0E5FA03B0BDE8F08F7B
:1005600040462146F9E7001B61EB0201001C41F502
:10057000801300185B412018A2F5001747EB030118
:1005800040EAD570B6196D4111E06D084FEA3606A4
:1005900045EAC0754FEA0752001B61EB0201001CDF
:1005A00041F5801149084FEA3000001951413246A7
:1005B0002B4603B0BDE8F04F00F0A5BA0098012229
:1005C00040000023D0EB020263EBE0730098214669
:1005D0004FEAE074B8EB000061EB0401E9E783F057
:1005E00000435BE781F0004158E72DE9FE4F81EAC7
:1005F000030404F0004421F0004100944FF0000B8C
:1006000023F0004350EA01045ED052EA03045BD0B9
:10061000C3F30A54C1F30A552C44A4F2F3340194F1
:10062000A0FB0254C1F3130141F48011C3F313037F
:1006300043F4801301FB024400FB034E840A970A33
:1006400044EA815447EA8357A4FB076802958D0A60
:1006500005FB07854FEA932C04FB0C542705029DEC
:100660004FEA065847EA1637B5EB08056EEB070C5C
:10067000870E920E47EA811742EA8312A7FB020116
:10068000B6EB0B0164EB00042B0D43EA0C335E1850
:1006900044EB1C50DA465146E7FB0201C5F3130454
:1006A0004FEA0B3343EA14534FEA0432019C43EA06
:1006B0000603A4F10C040294009CCDE900B400F000
:1006C00031FA03B0BDE8F08F00200146F9E72DE9CB
:1006D000F04D81EA030404F0004B21F0004514467C
:1006E0004FF0000A23F0004150EA050220D054EAFE
:1006F00001021DD0C5F30A570246C5F31303C1F327
:100700001300C1F30A5640F4801543F48013A7EB9D
:100710000608101BD64608F2FD3873EB050002D31D
:1007200008F1010801E092185B41B8F1000F03DA0B
:1007300000200146BDE8F08D00204FF480110646F0
:1007400084460EE0171B73EB050705D3121B63EB02
:10075000050306434CEA010C49084FEA30009218A1
:100760005B4150EA0107EDD152EA030012D082EA60
:10077000040083EA0501084305D0101BAB4106D2F3
:100780000122002306E000224FF0004302E06FF058
:10079000010253101AEB06004CEB085110EB0A0053
:1007A00041EB0B01BDE8F04D00F0ADB9C10F80EA9F
:1007B000E0700844CA079623002100F076B996231A
:1007C0000022114600F071B90EB540F2334102919A
:1007D0000021CDE900110A460B4600F0A3F903B051
:1007E00000BD00F0004220F00040C10DC0F3160033
:1007F00040F400007F2901DA00207047962903DCCD
:10080000C1F19601C84001E096398840002AF4D031
:100810004042704720F00040C10DC0F3160040F484
:1008200000007F2901DA00207047962903DCC1F11E
:100830009601C8407047963988407047C1F30A5204
:1008400010B5C1F3130140F2FF3341F480119A4215
:1008500001DA002010BD40F233439A42A2F2334243
:1008600003DC524200F0B4F810BD904010BD00F01F
:10087000004230F000400AD0C10D01F56071C0F3B4
:10088000160042EA0151C208400711437047002098
:100890000146704730B5041E71F1000404DB4FF0CF
:1008A0000044404264EB0101141E73F1000405DBB7
:1008B0001C464FF00043524263EB0403994208BFC9
:1008C000904230BD01F0004330B421F0004150EAC5
:1008D000010206D00A0DA2F56072C1F31301002ACD
:1008E00002DC30BC00207047440F44EAC104C10060
:1008F000E01830BC00EBC25000F0CEB8002801DB9D
:10090000C0F10040002901DBC1F100418142704784
:10091000002801DBC0F10040002901DBC1F10041EA
:100920008842704730B50B46014600202022012442
:1009300009E021FA02F59D4205D303FA02F5491BAD
:1009400004FA02F52844151EA2F10102F1DC30BDC3
:100950002DE9F05F0546002092469B4688460646F4
:10096000814640241BE0284641464746224600F087
:100970002FF853465A46C01A914110D311461846D3
:10098000224600F016F82D1A67EB01084F46224662
:100990000120002100F00DF817EB00094E41201E48
:1009A000A4F10104DFDC484631462A464346BDE84F
:1009B000F09F202A04DB203A00FA02F10020704761
:1009C0009140C2F1200320FA03F31943904070478D
:1009D000202A04DB203A21FA02F00021704721FA94
:1009E00002F3D040C2F120029140084319467047FB
:1009F000202A06DBCB17203A41FA02F043EAE073E3
:100A000006E041FA02F3D040C2F1200291400843CF
:100A1000194670473A2800D2303820F02002412A87
:100A200001D3A2F13700884201D34FF0FF30704765
:100A3000026811441378016018467047D160044978
:100A400051610449116200211161114600F0E8B8BA
:100A5000310A0008150C0008426842B1016811F81B
:100A6000013B23B1521EC0E9001218467047012114
:100A7000C160881E704742685AB1C368016843B9B3
:100A800083688B4205D0491E521CC0E90012002029
:100A900070474FF0FF3070470029A8BF7047401CD7
:100AA000490008BF20F00100704710B4B0FA80FC84
:100AB00000FA0CF050EA010404BF10BC704749B1C1
:100AC000CCF1200421FA04F411FA0CF118BF012131
:100AD00021430843A3EB0C01CB1D4FEA00614FEA11
:100AE000102042BF002010BC704700EBC3501044E0
:100AF0000029A4BF10BC7047401C490008BF20F06B
:100B0000010010BC704710B5141E73F1000408DA20
:100B1000401C41F1000192185B411A4301D120F0C1
:100B2000010010BD2DE9F04D92469B4611B1B1FA7E
:100B300081F202E0B0FA80F220329046FFF739FFEE
:100B400004460F4640EA0A0041EA0B0153465A4662
:100B5000084313D0114653EA010019D0C8F14002EE
:100B60005046FFF735FF05460E4650465946424669
:100B7000FFF71FFF084305D0012004E02046394657
:100B8000BDE8F08D0020054346EAE0762C4337436C
:100B90000A986305E40AA0EB08000022FD0A44EA73
:100BA00047540A3002D500200146E9E70105101933
:100BB0006941DDE9084500196941BDE8F04DA2E74A
:100BC000C1F30A52C1F3130140F2FF3341F4801123
:100BD0009A4202DA00200146704740F233439A42BB
:100BE000A2F2334202DC5242FFF7F2BEFFF7E1BE4F
:100BF000064C074D06E0E06840F0010394E807006A
:100C000098471034AC42F6D3FFF774FA244F00082B
:100C1000444F0008C0B24FF4F05100F097B9000003
:100C20002DE9F34F8BB04FF0000801F10C000C469A
:100C30004FF0010B46460DF1080A0190626901214F
:100C400001989047051E2DD0252D2CD0216A88476C
:100C5000C0B16269012101989047216A8847002844
:100C6000F7D1411E62690198904700E0761CA169A6
:100C70000B988847216A88470028F7D1E1690B98CB
:100C80008847DBE7A1690B9888470746A84201D14E
:100C9000761CD3E7E1690B9888477F1C02D1B8F135
:100CA000000F6FD046E1002762693D463946019842
:100CB00090472A2804D162690121019890470125B3
:100CC000DFF884926269012101989047A0F1300118
:100CD0000A290AD24F45E5DC07EB870100EB410703
:100CE000303FDFD445F01005ECE7E90601D46FF0A2
:100CF00000476C280AD04C2814D0682815D06A28E0
:100D00000DD074281CD07A281AD01DE06269012108
:100D1000019890476C2802D045F0040514E045F096
:100D200002050DE045F020050AE062690121019805
:100D30009047682802D045F0080505E045F40065B5
:100D40006269012101989047C4E9015765283DD0A7
:100D500019DC58287AD00CDC452837D004DC25284B
:100D600026D0412831D131E046282FD047282CD138
:100D70002CE05B2877D0612828D063287CD06428B9
:100D800023D15AE0D0E06F2848D008DC66281DD077
:100D900067281BD0692821D06E2816D127E070283B
:100DA00045D0732868D0752847D078280DD14DE0FC
:100DB000A1690B988847054625283FF469AFE1698A
:100DC0000B9888476D1C3FF46AAFB3E023466A4630
:100DD0006FF001000B99AFF300809EE045F04000FA
:100DE0006060A80723464FF0000236D43EE0E807D3
:100DF0007FF447AF2068011D21600068290501D5F7
:100E000006701BE7290701D5068017E7A90703D558
:100E1000F117C0E9006111E706600FE745F04000F7
:100E20006060A80723464FF0080216D41EE040F683
:100E30000E0125EA0100606016E045F040006060A8
:100E4000A80723464FF00A0207D40FE045F0400000
:100E50006060A80708D5234610226FF001000B99A7
:100E6000AFF3008059E007E0234610226FF0010045
:100E70000B99FFF7A5F950E04FF000094F464B469C
:100E8000632802D05B2806D040E0E80601D40120A8
:100E9000A06001273AE062690121019890475E282D
:100EA00005D14FF0010962694946019890472169CF
:100EB00039B900210A46534643F82120491C082924
:100EC000FADBB0B3216969B9C11700EBD1625311E4
:100ED0000AEB830122F01F02821A01200B68904066
:100EE00003430B6062690121019890475D28E8D1B6
:100EF000B9F1000F09D00020514651F82020D2430B
:100F000041F82020401C0828F7DB02AB224600975E
:100F10006FF001000B99AFF3008000280CDA401C41
:100F200008D1BBF1000F05D04FF0FF300DB0BDE888
:100F3000F08FFFE74046F9E7E90701D108F1010822
:100F400006444FF0000B79E6CCCCCC0C7F2801D9BD
:100F5000002208E0064A02EB5002C007127800D1D6
:100F6000120902F00F020120904008407047000073
:100F7000E14E000870B58C1810F8015B15F00703FE
:100F800001D110F8013B2A1106D110F8012B03E022
:100F900010F8016B01F8016B5B1EF9D12B0705D42A
:100FA0000023521E0DD401F8013BFAE710F8013B73
:100FB000CB1A921C03E013F8015B01F8015B521E8F
:100FC000F9D5A142D8D3002070BD000008B5012199
:100FD000082000F089FF4FF40040ADF80000102019
:100FE0008DF8030003208DF802006946044800F0E4
:100FF00020F84FF40041024800F0F7F808BD000067
:10100000000C014010B54FF40041024800F0EDF82B
:1010100010BD0000000C014010B54FF40041024823
:1010200000F0E5F810BD0000000C014000BFFEE735
:1010300070472DE9F04102460025002600200023DC
:101040000024002791F803C00CF00F0591F803C0AD
:101050000CF0100CBCF1000F03D091F802C04CEA68
:10106000050591F800C0BCF1000F31D014680020D4
:101070002BE04FF0010C0CFA00F3B1F800C00CEAC1
:1010800003069E4220D183004FF00F0C0CFA03F7A9
:10109000BC4305FA03FC4CEA040491F803C0BCF11C
:1010A000280F06D14FF0010C0CFA00FCC2F814C056
:1010B0000AE091F803C0BCF1480F05D14FF0010CD4
:1010C0000CFA00FCC2F810C0401C0828D1D31460F0
:1010D000B1F800C0BCF1FF0F34DD546800202EE0F1
:1010E00000F1080C4FF0010808FA0CF3B1F800C049
:1010F0000CEA03069E4221D183004FF00F0C0CFA3C
:1011000003F7BC4305FA03FC4CEA040491F803C05E
:10111000BCF1280F05D100F1080C08FA0CF8C2F850
:10112000148091F803C0BCF1480F07D100F1080CFE
:101130004FF0010808FA0CF8C2F81080401C08288B
:10114000CED35460BDE8F081F0B50A4600230024F8
:101150000021002500F00046B6F1004F02D11D4EDF
:10116000F16901E01B4E7168C0F3034583B200F4DE
:101170004016B6F5401F08D121F07061154E766813
:1011800026F07066134F7E6012E000F48016B6F50C
:10119000801F06D1032606FA05F4A14341F07061D1
:1011A00006E0460D360103FA06F6B14341F07061E0
:1011B00022B1460D360103FA06F6314300F000462F
:1011C000B6F1004F02D1034EF16101E0014E7160B2
:1011D000F0BD0000000001400246002093680B4073
:1011E0000BB1012000E000207047416170470161B0
:1011F00070470AB1016100E04161704770B5054672
:101200000C462846FFF7DBFA154908602046FFF731
:10121000D6FA144908600121134801F0A2F916E03A
:1012200000F0D0FA11480068801EA8420FDC0F4879
:101230000068801C85420ADC0D480068801EA042C0
:1012400005DC0B480068801C844200DC00E0E7E716
:1012500000BF00F0ADFA0021034801F082F970BD33
:101260006001002064010020002C0140500100209A
:10127000540100202DE9F04106460D461446002792
:101280004FF00F083046FFF79AFA1D4908602846CC
:10129000FFF795FA1B49086001211B4801F061F92D
:1012A00024E0FFF7AFFE194A1178194A1078FFF7CA
:1012B000A5FF17480068001B16490968884215DC1D
:1012C0001348006820441349096888420EDB0F4820
:1012D0000068001B10490968884207DC0B48006859
:1012E00020440D490968884200DB00E0D9E700BFCF
:1012F000FFF792FE0021044801F033F9BDE8F081C8
:101300006001002064010020002C01405C010020ED
:1013100058010020500100205401002000BFFEE7CA
:1013200010B502F04FFE00F007FAFFF74FFE00F095
:1013300025F801F0C3FA01F0FFFD00F050FA00F0CB
:1013400087FB472142F20F7001F078F840F60F61F9
:1013500040F2E73001F028F800200649086006490D
:101360000860592140F2E73001F078FA00F0B6FC4D
:1013700010BD0000480100204C01002008B50121EB
:10138000042000F0B1FD4FF40040ADF8000048200B
:101390008DF8030069461448FFF74BFE0121082031
:1013A00000F0A2FD48208DF803000120ADF80000F8
:1013B00069460E48FFF73DFE0220ADF80000694681
:1013C0000A48FFF736FE0121102000F08DFD48206D
:1013D0008DF803004FF40040ADF800006946044862
:1013E000FFF727FE08BD000000080140000C014087
:1013F0000010014010B57D48007890B14FF40041D5
:101400007B48FFF7E9FE60B90A2002F0FDFD4FF4CA
:1014100000417748FFF7E0FEE0B90020734908700B
:1014200018E04FF400417248FFF7D6FE012811D1B1
:101430006E48007870B901206C4908706D480088CA
:101440001E2804DA00206B490880012010BD00200E
:10145000684908806548007868B90A2002F0D4FD20
:1014600064480088401C63490880084600881E289C
:1014700001D10A20EAE76048007880B101215F4885
:10148000FFF7AAFE58B90A2002F0BEFD01215B4811
:10149000FFF7A2FED8B900205749087017E00121D4
:1014A0005648FFF799FE012811D15348007870B9CA
:1014B000012051490870524800881E2804DA002093
:1014C0004F4908800220C1E700204D4908804A4862
:1014D000007868B90A2002F097FD49480088401C4E
:1014E00047490880084600881E2801D11420ADE72E
:1014F0004448007880B102214048FFF76DFE58B99A
:101500000A2002F081FD02213C48FFF765FED8B9B0
:1015100000203C49087017E002213848FFF75CFEC4
:10152000012811D13748007870B901203549087079
:10153000354800881E2804DA00203349088003203B
:1015400084E70020304908802E48007860B90A20DE
:1015500002F05AFD2C480088401C2B4908800846A0
:1015600000881E2800D171E72848007890B14FF418
:1015700000412748FFF730FE60B90A2002F044FD21
:101580004FF400412248FFF727FEE0B900201F4931
:10159000087018E04FF400411D48FFF71DFE0128B8
:1015A00011D11A48007870B90120184908701948FB
:1015B00000881E2804DA002016490880042045E728
:1015C0000020144908801148007868B90A2002F008
:1015D0001BFD10480088401C0E4908800846008802
:1015E0001E2801D1282031E700202FE7BE0200206D
:1015F00000080140C2020020BF020020000C014090
:10160000C4020020C0020020C6020020C102002047
:1016100000100140C802002010B50024FFF7EAFEC8
:101620000446012C04D13121354801F012FF66E057
:10163000022C06D10220334908600120324908708B
:101640005DE0032C0AD104202E49086001202F49B7
:10165000087032212A4801F0FCFE50E0042C07D12A
:101660000520284908603321254801F0F2FE46E0B4
:101670000A2C0FD1062023490860254903C9FFF72A
:1016800021F924490860244903C9FFF71BF92349BC
:10169000086034E0142C0FD106201A490860204954
:1016A00003C9FFF70FF91B4908601E4903C9FFF77B
:1016B00009F91A49086022E01E2C0FD106201149B1
:1016C0000860194903C9FFF7FDF812490860174976
:1016D00003C9FFF7F7F81149086010E0282C0ED174
:1016E000062008490860124903C9FFF7EBF80949C9
:1016F0000860104903C9FFF7E5F80849086010BD04
:10170000004400406C000020110100201301002063
:101710007801002048010020800100204C010020B9
:10172000880100209001002098010020A0010020E5
:10173000A8010020B001002008B501211C2000F004
:10174000D3FB0121084600F0CFFB01211448FFF72D
:10175000FBFC4FF4C050ADF8000010208DF80300E2
:1017600003208DF8020069460E48FFF762FC08204E
:10177000ADF8000069460C48FFF75BFC4FF40050E1
:10178000ADF8000069460948FFF753FC4FF4C0511B
:101790000448FFF72AFD08210348FFF726FD08BD8E
:1017A0000002300000080140000C01400010014020
:1017B00010B54FF400610248FFF717FD10BD00009F
:1017C0000008014010B54FF400610248FFF70FFD1B
:1017D00010BD00000008014000BFFEE7704708B5DB
:1017E0004FF4A06000F086F806208DF8000000207D
:1017F0008DF801008DF8020001208DF80300684685
:1018000000F040F825208DF8000001208DF801003F
:1018100000208DF8020001208DF80300684600F0DA
:1018200031F819208DF8000001208DF801008DF8A5
:1018300002008DF80300684600F024F808BD08B5E2
:1018400025208DF8000001208DF801008DF80200A0
:101850008DF80300684600F015F808BD08B54FF490
:10186000806000F047F826208DF8000001208DF8F8
:1018700001008DF802008DF80300684600F002F8C0
:1018800008BD000070B5002100230F22C47804B306
:10189000154C246804F4E064C4F5E064210AC1F145
:1018A0000403CA40447804FA03F1847814402143C5
:1018B00009010E4C0678A155047804F01F05012497
:1018C000AC4005786D11AD0005F1E025C5F800418B
:1018D00009E0047804F01F050124AC40044D0678AB
:1018E000761145F8264070BD0CED00E000E400E004
:1018F00080E100E002490143024A116070470000A4
:101900000000FA050CED00E070B500240EE00021A7
:10191000204600F00DF9002504E0002000F0CDF98C
:10192000681CC5B2802DF8DB601CC4B2082CEEDB4D
:1019300070BD000008B50121082000F0D5FA142080
:101940008DF8030003208DF802004FF48050ADF8AD
:10195000000069461148FFF76CFB4FF40050ADF8EA
:10196000000069460D48FFF764FB10208DF8030066
:1019700003208DF802004FF48040ADF80000694666
:101980000648FFF756FB012211030448FFF731FC1C
:10199000012251030148FFF72CFC08BD000C014057
:1019A00070B50546002415E08020204100EA0502BC
:1019B0004FF400510E48FFF71CFC012211030C48A4
:1019C000FFF717FC00224FF480510948FFF711FC84
:1019D000601CC4B2082CE7DB012211030448FFF7A6
:1019E00008FC00224FF480510148FFF702FC70BD53
:1019F000000C014010B5012251030A48FFF7F9FB22
:101A0000012211030748FFF7F4FB00224FF40051B5
:101A10000448FFF7EEFB00224FF480510148FFF726
:101A2000E8FB10BD000C014010B500224FF400513E
:101A30000648FFF7DEFB012211030448FFF7D9FB3C
:101A4000012251030148FFF7D4FB10BD000C0140F7
:101A500070B5002406E0002500E06D1CB5F57A7F26
:101A6000FBD3641CB4F57A7FF5D3FFF763FF4FF423
:101A700080412948FFF7B9FB142002F0C5FA4FF462
:101A800080412548FFF7B3FBAE2000F006F9D520D2
:101A900000F003F9802000F000F9A82000F0FDF824
:101AA0003F2000F0FAF8D32000F0F7F8002000F013
:101AB000F4F8402000F0F1F8A12000F0EEF8C82082
:101AC00000F0EBF8DA2000F0E8F8122000F0E5F87A
:101AD000812000F0E2F8CF2000F0DFF8D92000F0FC
:101AE000DCF8F12000F0D9F8DB2000F0D6F8302047
:101AF00000F0D3F8A42000F0D0F8A62000F0CDF834
:101B00008D2000F0CAF8142000F0C7F8AF2000F0D4
:101B1000C4F8FFF7F9FE70BD000C014010B5024695
:101B2000012000E050430B1EA1F10101FAD110BDCC
:101B300070B505460C4645F0B00000F0AEF8102137
:101B400041EA141000F0A9F804F00F0000F0A5F825
:101B500070BD00002DE9F04105460E461746721E85
:101B6000D206110E6A1E5206100EFFF7E1FF002486
:101B700009E0A7F12001134A02EB0111085D00F012
:101B80009CF8601CC4B2082CF3DB721ED206110E46
:101B90006A1E012303EB4202D0B2FFF7C9FF002403
:101BA0000BE0A7F12001074A02EB011204F1080142
:101BB000505C00F082F8601CC4B2082CF1DBBDE878
:101BC000F0810000D04800082DE9F04780460E461D
:101BD00017461D46002415E0281B411E0A20FFF76A
:101BE0009DFFB7FBF0F00A21B0FBF1F201FB120000
:101BF00000F130093019C1B24A464046FFF7AAFF4A
:101C0000601CC4B2AC42E7DBBDE8F0872DE9F047C9
:101C10008146884615461E46002D06DB2B2241468E
:101C20004846FFF797FF2F4605E02D2241464846DC
:101C3000FFF790FF6F42002417E0301B411E0A207F
:101C4000FFF76CFFB7FBF0F00A21B0FBF1F201FBEC
:101C5000120000F1300A08EB0400401CC1B25246E9
:101C60004846FFF777FF601CC4B2B442E5DBBDE82D
:101C7000F0872DE9F04107460E461546002407E09F
:101C80002A5D3019C1B23846FFF764FF601CC4B248
:101C9000285D0028F4D1BDE8F08110B50446FFF7B7
:101CA000A9FE7820FFF77CFE0020FFF779FE204692
:101CB000FFF776FEFFF7B8FE10BD10B50446FFF73C
:101CC00099FE7820FFF76CFE4020FFF769FE204662
:101CD000FFF766FEFFF7A8FE10BD000019481A497D
:101CE0000860002048608860C860C86117480861C3
:101CF0004FF07E5048618861124815490860002005
:101D000048608860C860C8614FF07E50086100205C
:101D1000486188610F49086048608860C860C86190
:101D200008614861886107480B49086000204860E5
:101D30008860C860C8614FF07E500861002048612B
:101D4000886170470000A0407403002052B89E3F95
:101D500094030020B4030020D40300207047000047
:101D60002DE9F04704460D4629462046FEF723FBA1
:101D700020490860084601681F480068FEF7C6FA57
:101D80001D4908601D4801681A480068FEF710FBED
:101D900081461B4801684846FEF710FB80461949FA
:101DA000FEF73EFB06461448016817480068FEF738
:101DB00005FB82461349FEF733FB80460D48016858
:101DC00012480068FEF7FAFA82460E49FEF728FB31
:101DD00081464146FEF79AFA07463146FEF796FAE3
:101DE0000B49086003480068044908600848006817
:101DF000BDE8F0873C00002044000020480000209F
:101E0000900000200000C8428C00002088000020C4
:101E1000400000202DE9F04704460D4629462046A3
:101E2000FEF7C9FA20490860084601681F480068A3
:101E3000FEF76CFA1D4908601D4801681A480068E1
:101E4000FEF7B6FA81461B4801684846FEF7B6FA27
:101E500080461949FEF7E4FA064614480168174817
:101E60000068FEF7ABFA82461349FEF7D9FA8046BE
:101E70000D48016812480068FEF7A0FA82460E4934
:101E8000FEF7CEFA81464146FEF740FA0746314654
:101E9000FEF73CFA0B4908600348006804490860F3
:101EA00008480068BDE8F0874C000020540000207E
:101EB00058000020900000200000C8428C00002044
:101EC000880000205000002029B1064AD269024350
:101ED000044BDA6104E0034AD2698243014BDA61C0
:101EE000704700000010024029B1064A926902437F
:101EF000044B9A6104E0034A92698243014B9A6160
:101F0000704700000010024030B50021002200247C
:101F100000232D4D6D6805F00C0121B1042905D079
:101F2000082923D105E0294D056022E0274D0560F1
:101F30001FE0254D6D6805F47012234D6D6805F4A2
:101F40008034022505EB92421CB9214D55430560B2
:101F50000BE01D4D6D6805F400351DB11C4D55435A
:101F6000056002E0194D5543056002E0174D05601C
:101F700000BF00BF144D6D6805F0F0010909154D53
:101F80006B5C0568DD4045600F4D6D6805F4E061F0
:101F9000090A104D6B5C4568DD4085600A4D6D682F
:101FA00005F46051C90A0B4D6B5C4568DD40C560A6
:101FB000054D6D6805F44041890B074D6B5CC568A4
:101FC000B5FBF3F5056130BD0010024000127A0048
:101FD00000093D0014000020240000202DE9F843F2
:101FE000044600BFDFF8888098F80000532801D02D
:101FF00001F0C0FA00BF0027FF208DF80000102C70
:1020000031D21C48005D8DF80100194D1835EFF3F1
:1020100011808046202080F3118800BF00BF287DFA
:1020200000F00300022807D1134804700222694619
:10203000284601F0E5FA0FE0284601F0D3FA0646FB
:10204000022E07D30C48047002226946284601F08C
:1020500012FB01E04FF0FF3708F0FF0080F311881A
:1020600000BF00BF01E04FF0FF373846BDE8F883FE
:1020700024060020C04E0008CE020020704710B594
:1020800000F002F810BD00000CB500200190009097
:102090003248006840F480303049086000BF2F4863
:1020A000006800F4003000900198401C01900098F6
:1020B00018B90198B0F5A06FF1D12848006800F474
:1020C000003010B10120009001E000200090009845
:1020D000012841D12248006840F0100020490860E2
:1020E0000846006820F0030008600846006840F0D9
:1020F000010008601948406818494860084640686F
:1021000048600846406848600846406820F47C10F3
:1021100048600846406840F4F81048600846006887
:1021200040F08070086000BF0C48006800F000704C
:102130000028F9D00948406820F0030007494860AA
:102140000846406840F00200486000BF034840680D
:1021500000F00C000828F9D10CBD0000001002406E
:102160000020024070B504460D460E480168204626
:10217000FEF7CCF80B49086029460B480068FEF7CB
:10218000C5F80949086007480068FEF743FB07499E
:10219000088005480068FEF73DFB0449091D0880DA
:1021A00070BD000094000020980000203C08004012
:1021B000042808D14FF0E021096941F004014FF0F3
:1021C000E022116107E04FF0E021096921F00401EC
:1021D0004FF0E022116170477047000010B51348BE
:1021E000006840F001001149086008464068104945
:1021F00008400E494860084600680E4908400B49EF
:1022000008600846006820F480200860084640689E
:1022100020F4FE0048604FF41F008860FFF72FFF96
:102220004FF000600449086010BD0000001002403B
:102230000000FFF8FFFFF6FE08ED00E070B5404833
:102240000068401C3E49086001213E4800F095F9B5
:10225000002874D03C480068042838DB3A480068FD
:10226000062834DA01F0FCF838480168384802F0F2
:102270002DFB38480168384802F028FB37480068D1
:10228000FEF794FA04462146314802F067FA3449D1
:10229000086034480068FEF789FA044621462E4853
:1022A00002F05CFA30490860084601682C48006872
:1022B00001F01AF92C48006880F0004428480068B2
:1022C00080F0004521462846FFF74CFF33E01E48CA
:1022D0000068042803DB1C48006806282BD101F0A5
:1022E000BFF8224801682248FEF762F821490860D9
:1022F0001F4921480068FEF709F8204908601D4879
:1023000001681F480068FFF72BFD1E4908601B4845
:1023100001681D480068FFF77DFD1C4908600846FC
:1023200001681848006801F0DFF81848016815488E
:102330000068FFF717FF0121024800F00FF970BD98
:1023400034010020002C01406C00002060010020BE
:10235000B403002064010020D403002050010020B9
:1023600068010020540100206C0100204801002079
:1023700000803B449C0000204C010020A000002075
:1023800094000020A400002098000020A800002055
:1023900010B50121880700F0F0F8012803D10121D0
:1023A000800700F0DBF810BD7FB505460C46012123
:1023B0000846FFF789FDADF80850ADF8044000204D
:1023C000ADF80600ADF80A0001A94FF0804000F01A
:1023D000F3F901221146900700F0E0F81C208DF877
:1023E000000001208DF803008DF8010002208DF817
:1023F00002006846FFF746FA0121880700F0B1F8AD
:102400007FBD000010B50121044800F0B6F818B1F6
:102410000121024800F0A2F810BD000000040040B5
:1024200010B50121044800F0A8F818B101210248B4
:1024300000F094F810BD00000008004030B589B0ED
:1024400005460C4601210820FFF74EFD012104201E
:10245000FFF73AFD4FF44070ADF8200018208DF8DA
:10246000230003208DF8220008A93448FEF7E1FD7F
:10247000ADF81850ADF814400020ADF81600ADF8D6
:102480001A0005A92E4800F097F97020ADF8040055
:102490000220ADF80C000120ADF806000020ADF8D8
:1024A0000A0001A9264800F083F80021244800F022
:1024B000CBF84FF4FA70ADF80A007020ADF80400C4
:1024C0000120ADF806000220ADF80C0008211C48E0
:1024D00000F014F901A91A4800F0C0F84FF4FA709E
:1024E000ADF80A007020ADF804000120ADF8060038
:1024F0000220ADF80C000821114800F047F901A9AD
:102500000F4800F005F901210D4800F01BF80121EA
:102510000B4800F026F80021094800F044F900219A
:10252000074800F042F90021054800F040F9002179
:10253000034800F03EF909B030BD0000000C014036
:102540000008004021B1028842F08002028004E0CD
:1025500002884FF67F731A4002807047CA43028296
:10256000704721B1028842F00102028004E0028833
:102570004FF6FE731A400280704730B502460020C5
:1025800000230024158A05EA0103958905EA010460
:1025900013B10CB1012000E0002030BD1AB18389D5
:1025A0000B43838102E083898B4383817047000062
:1025B00070B5002400220023058C4FF6FE763540CE
:1025C0000584028C8388048B4FF68F752C40B51ED2
:1025D0002C400D882C43751E2A400D892A434D88B6
:1025E0002A43144DA8420BD0134DA84208D0134DD6
:1025F000A84205D0124DA84202D0124DA84213D1D4
:102600004FF6F7752A404D892A434FF6FB752A404D
:102610008D882A434FF6FF652B404FF6FF552B4020
:102620008D892B43CD892B4383800483CD88858678
:10263000028470BD002C0140003401400040014084
:1026400000440140004801400A460021018B4FF63A
:10265000F7731940114301837047000070B50024DF
:1026600000220023058C4FF6FF6635400584028C5E
:102670008388848B4FF68F752C404FF6FC752C4069
:102680000D882C434FF6FF552A400D894FF6FF76F3
:1026900006EA05252A434D8806EA05252A43154DF5
:1026A000A84202D0144DA8421DD14FF2FF752A4016
:1026B0004D894FF6FF7606EA05252A434FF6FF358A
:1026C0002A408D8806EA05252A434EF6FF752B40E1
:1026D0004DF6FF752B408D8906EA05152B43CD89F4
:1026E00006EA05152B4383808483CD888587028481
:1026F00070BD0000002C0140003401400A4600215A
:10270000818B4FF6F77319401143818370470000A6
:1027100070B5002200230024058C4EF6FF7635406C
:102720000584038C8488828B48F6FF752A404FF617
:10273000FF452A400D884FF6FF7606EA05252A4315
:102740004DF6FF752B400D8906EA05352B434D8864
:1027500006EA05352B430B4DA84202D00A4DA8428C
:1027600008D14BF6FF752C408D894FF6FF7606EAAF
:1027700085152C4384808283CD88A0F84050038443
:1027800070BD0000002C0140003401400A460021C9
:10279000818B4FF2FF7319404FF6FF7303EA022358
:1027A000194381837047818670470187704781870D
:1027B0007047A0F840107047002202881D4B9842D5
:1027C0000ED01D4B98420BD0B0F1804F08D01B4B60
:1027D000984205D01A4B984202D01A4B984204D125
:1027E0004FF68F731A404B881A43174B984207D005
:1027F000164B984204D04FF6FF431A40CB881A4339
:1028000002808B8883850B8803850A4B98420BD006
:10281000094B984208D00E4B984205D00D4B984278
:1028200002D00D4B984201D10B7A0386012383829B
:1028300070470000002C01400034014000040040BB
:1028400000080040000C0040001000400014004050
:102850000040014000440140004801407FB505466A
:102860000C460121C802FFF73FFBADF80850ADF858
:1028700004400120ADF80A000020ADF8060001A9CF
:102880000D48FFF799FF012241210B48FFF786FE13
:1028900019208DF8000000208DF8010002208DF82D
:1028A000020001208DF803006846FEF7EBFF0121CE
:1028B0000148FFF756FE7FBD002C014000B585B0F2
:1028C000012144F20400FFF70FFB4FF40070ADF854
:1028D000100018208DF8130003208DF8120004A9B1
:1028E0001748FEF7A6FB4FF48060ADF810000420F7
:1028F0008DF8130004A91248FEF79BFBFEF79FFF1B
:102900004FF4E13000900020ADF80400ADF806006F
:10291000ADF80800ADF80C000C20ADF80A006946CF
:10292000084800F025FD012240F22551054800F03D
:10293000FAFC0121034800F0B3FC05B000BD000023
:1029400000080140003801402DE9FC4740F22551C4
:10295000F94800F0BEFC002808D0F74800F074FDEC
:10296000C4B2232C03D10120F4490870C6E2402CE4
:1029700070D1F349F3A0FDF7F9FB18B90120F24932
:102980000860C3E1EE49F1A0FDF7F0FB30B9022089
:10299000ED4908600120EE490870B7E1E849EDA073
:1029A000FDF7E4FB28B9EF480078401CED490870BA
:1029B000ACE1E349ECA0FDF7D9FB28B9E448007885
:1029C000401EE3490870A1E1DD49E9A0FDF7CEFB17
:1029D00090B90420DC4908600120E64908703121E3
:1029E000E54800F036FD40F2DC5001F00DFB3221ED
:1029F000E14800F02EFD89E1D149E0A0FDF7B6FBEA
:102A000028B9E0480078401CDE4908707EE1CC49D6
:102A1000DDA0FDF7ABFB28B9DA480078401ED949A4
:102A2000087073E1C649DAA0FDF7A0FB38B90520AC
:102A3000C54908603321D04800F00BFD66E1C0496C
:102A4000D4A0FDF793FB30B9CA480078401CC949AF
:102A500008705BE102E2BA49D0A0FDF787FB28B914
:102A6000C4480078401EC34908704FE1B449CDA066
:102A7000FDF77CFB50B90520B34908600120CA4925
:102A800008703221BC4800F0E4FC3FE1AC49C7A02B
:102A9000FDF76CFB28B9C4480078401CC249087097
:102AA00034E1A749C3A0FDF761FB28B9BE4800780F
:102AB000401EBD49087029E1A149C0A0FDF756FBA1
:102AC00030B90620A04908600120BD4908701DE109
:102AD0009B49BCA0FDF74AFB30B907209A49086022
:102AE0000120B749087011E19549B7A0FDF73EFBF9
:102AF00028B9B3480078401CB149087006E19049F4
:102B0000B3A0FDF733FB28B9AD480078401EAC49AF
:102B10000870FBE08A49B0A0FDF728FB58B90620F1
:102B2000894908604FF07E51AC480068FDF7EEFB24
:102B3000AA490860EAE08249A9A0FDF717FB58B945
:102B40000620814908604FF07E51A4480068FDF7D7
:102B50002FFCA2490860D9E07949A2A0FDF706FB45
:102B600058B90620784908604FF07E519E480068A9
:102B7000FDF7CCFB9C490860C8E071499BA0FDF7BC
:102B8000F5FA58B90620704908604FF07E51964812
:102B90000068FDF70DFC94490860B7E0684994A00F
:102BA000FDF7E4FA78B9062067490860914903C93E
:102BB000FDF788FE8C4908608F4903C9FDF782FE46
:102BC00086490860A2E05E498CA0FDF7CFFA78B98B
:102BD00006205D4908608A4903C9FDF773FE8249F2
:102BE0000860884903C9FDF76DFE7C4908608DE0E7
:102BF000534985A0FDF7BAFA78B906205249086012
:102C0000824903C9FDF75EFE77490860804903C920
:102C1000FDF758FE7149086078E049497DA0FDF74D
:102C2000A5FA78B90620484908607B4903C9FDF731
:102C300049FE6D490860794903C9FDF743FE6749BC
:102C4000086063E03E4976A0FDF790FA78B9062067
:102C50003D490860734903C9FDF734FE62490860C5
:102C6000714903C9FDF72EFE5C4908604EE0344906
:102C70006EA0FDF77BFA78B90620334908606C49ED
:102C800003C9FDF71FFE584908606A4903C9FDF7EB
:102C900019FE5249086039E0294967A0FDF766FA34
:102CA00078B9062028490860644903C9FDF70AFE7F
:102CB0004D490860624903C9FDF704FE47490860B1
:102CC00024E01F495FA0FDF751FA78B906201E499C
:102CD00008605D4903C9FDF7F5FD434908605B499C
:102CE00003C9FDF7EFFD3D4908600FE0144958A006
:102CF000FDF73CFA50B906201349086055480068B2
:102D000036490860544800683749086000200B497C
:102D1000087009E000200A49084A127888540748D8
:102D20000078401C05490870044800782028F1DB31
:102D3000002002490870E1E000380140480200200C
:102D400014040020310000006C000020320000005C
:102D500011010020466C61675F796F757869612B9E
:102D60002B00000016010020466C6167322D2D00FB
:102D7000330000001301002000440040466C6167EE
:102D8000332B2B0012010020466C6167332D2D0080
:102D900034000000466C6167342B2B00466C616781
:102DA000342D2D003500000014010020466C6167B1
:102DB000352B2B00466C6167352D2D003600000049
:102DC0001501002037000000466C6167362B2B0090
:102DD000466C6167362D2D00592B31004C010020C7
:102DE000592D3100582B310048010020582D310059
:102DF0005A53000078010020800100205953000040
:102E000088010020900100205958000098010020FE
:102E1000A00100205A580000A8010020B0010020A5
:102E20005A533200B8010020C0010020595332002B
:102E3000C8010020D001002059583200D8010020DC
:102E4000E00100205A583200E8010020F001002083
:102E5000524553007001002074010020262C3BD104
:102E6000DFF89C90274B284A28A14846FDF78CF9AB
:102E700024480068FDF79AFC26490860224800684B
:102E8000FDF794FC2449086008460068FDF7EFFC54
:102E900005460E461F480068FDF7E9FC07463A461E
:102EA0000B461EA0CDE9005600F012FC002021497F
:102EB000087009E0002112481E4A127881541D480A
:102EC0000078401C1B4908701A4800782028F1DB64
:102ED00000201849087011E01648007800280DDD20
:102EE00014480078C82809DC12480078401E0449BC
:102EF0000C5410480078401C0E490870BDE8FC874F
:102F000014040020500200204C02002025642C25CF
:102F1000640000009C000020A00000205461726743
:102F20006574313D25662C546172676574313D25A9
:102F3000660D0A004802002000B585B00121480452
:102F4000FEF7C2FF01210420FEF7CEFF0420ADF8FA
:102F5000100018208DF8130003208DF8120004A92A
:102F60001648FEF766F80820ADF8100004208DF82A
:102F7000130004A91148FEF75CF8FEF76FFC4FF44C
:102F8000E13000900020ADF80400ADF80600ADF887
:102F90000800ADF80C000C20ADF80A00694608489E
:102FA00000F0E6F9012240F22551054800F0BBF996
:102FB0000121034800F074F905B000BD000801408C
:102FC0000044004010B586B040F225515C4800F046
:102FD00080F9002808D05A4800F036FAC4B2232CF1
:102FE00003D1012057490870A7E0242C57D1564837
:102FF0005649574A574BCDE90232CDE9041056489D
:103000005649574B574ACDE9001057A15D48FDF787
:10301000BBF854480068FDF7C9FB5B49086050489D
:103020000068FDF7C3FB584948604C480068FDF74D
:10303000BDFB5549886048480068FDF7B7FB524919
:10304000C86044480068FDF7B1FB4F49086140483B
:103050000068FDF7ABFB4C4948613C480068FDF750
:10306000A5FB4949886138480068FDF79FFB464940
:10307000C86100203349087009E000204149314A05
:10308000127888542F480078401C2E4908702D482B
:1030900000782028F1DB00202A4908704DE0292C17
:1030A0001BD13A4B3A4A3BA13648FDF76DF8002058
:1030B0002449087009E000213248224A12788154DC
:1030C00020480078401C1F4908701E4800782028BE
:1030D000F1DB00201B4908702FE0472C1BD12F4B40
:1030E0002F4A2CA12748FDF74FF8002015490870FA
:1030F00009E000202349134A1278885411480078C7
:10310000401C104908700F4800782028F1DB00208F
:103110000C49087011E00B48007800280DDD0948C3
:103120000078802809DC07480078401E15490C54B7
:1031300004480078401C0349087006B010BD000028
:10314000004400405402002074020020700200205D
:103150006C0200206802002064020020600200204F
:103160005C0200205802002025642C25642C256474
:103170002C25642C25642C25642C25642C25642C9A
:103180000000000094040020D4020020540100201C
:103190005001002025642C25642C00005C010020D7
:1031A0005801002038B540F225512F4800F091F821
:1031B000002858D02C4800F047F9C4B2232C03D182
:1031C00001202A4908704EE0402C1CD128A000F0B4
:1031D0007FFA2D492DA000F07BFA002023490870CA
:1031E00009E000202849214A127888541F480078B5
:1031F000401C1E4908701D4800782028F1DB002083
:103200001A4908702FE0532C1BD11F4800906946C3
:1032100021A000F05DFA00201449087009E00020A8
:103220001949124A1278885410480078401C0F49F6
:1032300008700E4800782028F1DB00200B49087048
:1032400011E00A48007800280DDD08480078C828F9
:1032500009DC06480078401E0B490C5403480078EE
:10326000401C0249087038BD00480040BC020020E4
:103270000D0AC4FAB7A2CBCDB5C4CFFBCFA2CEAA5C
:10328000313A0D0A0D0A00005C0500204255463A0D
:1032900025730D0A0D0A000025630D0A00000000C9
:1032A00021B1828942F40052828104E082894DF684
:1032B000FF731A408281704702460020B1F5007FFB
:1032C00000D100BF13880B400BB1012000E00020AB
:1032D000704770B50246002400230025002040F608
:1032E0006A16B14200D100BFC1F3421501F01F03BD
:1032F000012606FA03F3012D02D19689334006E038
:10330000022D02D1168A334001E0968A33400C1216
:10331000012606FA04F41688344013B10CB10120DA
:1033200000E0002070BDF0B5034600240026002513
:10333000002040F66A17B94200D100BF1846C1F319
:10334000421401F01F06012707FA06F5012C01D1EE
:103350000C3004E0022C01D1103000E014301AB11E
:1033600007682F43076002E00768AF430760F0BDBE
:103370002DE9F04786B005460E460024A24600BF60
:10338000A1460027B08900B100BF2F462C8A4CF619
:10339000FF700440F08804432C82AC894EF6F31091
:1033A0000440B08831890843718908430443AC81E3
:1033B000AC8A4FF6FF400440B0890443AC8201A8B8
:1033C000FEF7A2FD1F48874202D1DDF810A001E000
:1033D000DDF80CA0A88900F4004040B10AEBCA0057
:1033E00000EB0A1031684900B0FBF1F807E00AEB86
:1033F000CA0000EB0A1031688900B0FBF1F86420C4
:10340000B8FBF0F004012009642101FB1089A889B0
:1034100000F4004040B1322000EBC900B0FBF1F0F5
:1034200000F00700044308E0322000EB091064219B
:10343000B0FBF1F000F00F0004432C8106B0BDE8B2
:10344000F08700000038014001468888C0F308007A
:103450007047C1F308028280704700BFFEE700009A
:1034600070B5502465422846FDF7A0F906461C4871
:1034700001683046FDF74CFA04D22846FDF796F96C
:10348000174908602046FDF791F90646144801687F
:103490003046FDF733FA04D22046FDF787F910498C
:1034A00008602846FDF782F906460E480168304656
:1034B000FDF72EFA04D22846FDF778F9094908608D
:1034C0002046FDF773F90646064801683046FDF7C9
:1034D00015FA04D22046FDF769F90249086070BD6B
:1034E000480100204C0100202DE9F04104460D4622
:1034F0001F480068FDF775F980461D48006880F098
:1035000000473846FDF76DF906463046FDF74EF99F
:1035100007462146FDF7FCF903D23046FDF746F990
:1035200004464046FDF742F907462146FDF7E6F915
:1035300003D24046FDF73AF904463046FDF736F926
:1035400007462946FDF7E4F903D23046FDF72EF988
:1035500005464046FDF72AF907462946FDF7CEF90C
:1035600003D24046FDF722F90546BDE8F081000090
:103570003001002070B5144CA8212046FCF7EBFD6B
:1035800003202061606111A0A0611349E1614FF443
:10359000006121620021A1626162E1620BA02066EC
:1035A0000E4961661021A16600212167E16661670D
:1035B000002505E0C5F10F000949085C60556D1C48
:1035C000102DF7D370BD0000240600205465726DE5
:1035D000696E616C00000000CC060020CC0E00205B
:1035E000D04E000810B501460A69CB689A4204D84B
:1035F0008C68641EE41AA01801E0D41A601E10BD85
:103600002DE9F05F0446894617464FF0000AE56849
:1036100000BFD4F81080A84503D9A8EB0500461ECA
:1036200004E0A5EB0800401CA1680E1AA068401B2E
:10363000B04201D9304601E0A068401B0646BE42B8
:1036400001D2304600E038460646606800EB050BC4
:10365000324649465846FCF765FDB244B144BF1BAB
:103660003544A068A84200D10025E560002FD0D1E4
:103670005046BDE8F09F2DE9F047044689461546BF
:10368000E668A068871BAF420AD9606800EB060AAB
:103690002A4649465046FCF745FD7019E06014E0A3
:1036A000B846606800EB060A424649465046FCF7B9
:1036B00039FDA5EB0708D4F804A009EB0701424641
:1036C0005046FCF72FFDC4F80C80BDE8F0870000E1
:1036D0000FB4054B10B503A9044A029800F0DAF8BC
:1036E00010BC5DF814FB000039470008D002002030
:1036F00002E008C8121F08C1002AFAD170477047BB
:10370000002001E001C1121F002AFBD17047000018
:103710002DE9FF5F82B00021DDE90430020DDDF804
:1037200040B0034318D044F61050A2F2FF32424397
:103730001514119801281FD0A5EB0B00401C5FEA5F
:10374000000A4FF000064E4FDFF83891B046504661
:1037500015D5CAF1000413E0119801244AA30128E9
:1037600001D16FEA0B010298119AC0E90031C0E95A
:10377000024206B0BDE8F09FCBF10000DFE704464F
:103780000021404A491842EB0450CDE9001012E0F4
:10379000E00707D032463B4640464946FCF725FF46
:1037A0008046894632463B4610461946FCF71DFFC7
:1037B00006460F466410002CEAD1DDE90401DDE97C
:1037C0000023BAF1000F06DAFCF70FFF42464B4622
:1037D000FCF70BFF05E0FCF77AFF42464B46FCF78F
:1037E00076FF04460E460022284BFDF753F803D817
:1037F0004FF0FF30014607E00022254B20463146BE
:10380000FCF74CFEFDF7DCF9102409E0002C0ADB84
:103810000A220023FDF79CF8039B30321A55641EE0
:1038200050EA0102F2D1641C039AC4F1110314445A
:10383000119A012A03D0012208430DD10AE008435E
:1038400004D000204FF0110B119072E7A3EB0B0591
:103850006D1E0DE05B4504DD4FF0000205F1010532
:1038600004E003DA4FF00002A5F10105002AECD0D4
:1038700002981199C0E90231C0E9004579E70000DA
:10388000000014400000F03F300000000000F04352
:103890000000E03F2DE9FF4F95B09B468946064664
:1038A00000250FE2252877D100242746F84A012178
:1038B000059400E0044316F8013F203B01FA03F0B1
:1038C0001042F7D130782A2811D06FF02F033078CA
:1038D000A0F13002092A16D8059A44F0020402EB3E
:1038E000820203EB42021044761C0590EFE759F880
:1038F000042B0592002A03DA504244F40054059048
:1039000044F00204761C30782E2816D116F8010FE8
:1039100044F004042A280DD06FF02F023078A0F173
:103920003003092B09D807EB870302EB4303C718C1
:10393000761CF3E759F8047B761C30786C280FD09E
:1039400006DC4C2817D068280DD06A2814D104E072
:10395000742810D07A280FD10DE044F400140AE046
:1039600044F4801401E044F440147278824202D19D
:1039700004F58014761C761C307866280BD013DC96
:10398000582877D009DC002875D04528F6D046287D
:10399000F4D047281AD19DE118E0632835D0642877
:1039A00079D0652812D195E1702873D008DC67289A
:1039B000F1D069286FD06E280DD06F2806D1B5E000
:1039C00073282CD0752875D0782874D05A4617994A
:1039D00090476D1C75E1C4F30250022809D00328FA
:1039E0000DD0D9F8001004280DD00D6009F104099C
:1039F00067E1D9F80010EA17C1E90052F6E7D9F8F3
:103A000000100D80F2E70D70F0E719F8041B8DF837
:103A1000001000208DF80100EA46012003E059F86B
:103A200004AB4FF0FF3061074FF0000102D40DE00E
:103A300008F101018846B9420FDA8045F8DB1AF82F
:103A400008100029F4D108E008F1010188468142FC
:103A5000FADB1AF808100029F6D105985B46A0EBAE
:103A6000080721463846179A00F094FA284400EBDC
:103A7000080507E04DE029E10DE01AF8010B5A4670
:103A800017999047B8F10108F7D25B4621463846AE
:103A9000179A13E142E00A220092C4F302524FF057
:103AA000000A022A08D059F804CB032A4FEAEC7125
:103AB0000AD00DE029E02AE009F1070121F0070210
:103AC000F2E802C1914609E00FFA8CFC4FEAEC7172
:103AD000042A03D14FFA8CFC4FEAEC71002907DA73
:103AE0000A460021DCF1000C61EB02012D2202E00C
:103AF000220504D52B228DF80420012203E0E207E1
:103B000001D02022F7E7904659E00A2102E0102276
:103B10000DE010214FF0000A00910BE010224FF051
:103B2000000A44F004040827009203E008224FF042
:103B3000000A0092C4F30252022A05D059F804CBBD
:103B40000021032A08D009E009F1070121F007024A
:103B5000F2E802C1914605E01FFA8CFC042A01D16B
:103B60000CF0FF0C4FF00008220728D5702806D073
:103B7000009B83F0100353EA0A0305D00EE04022B5
:103B80008DF80420012208E05CEA010206D0302210
:103B90008DF804208DF8050002229046009B83F0EA
:103BA000080353EA0A030AD15CEA010201D1620761
:103BB00005D530228DF804204FF001087F1E5828CB
:103BC00004D034A003900EA802900DE036A0F9E7CF
:103BD00053466046009AFCF7BBFE84460398825C1D
:103BE0000298401E029002705CEA0100F0D1029837
:103BF00006A9081A00F1200A600702D524F48034CF
:103C000000E00127574502DDA7EB0A0000E0002095
:103C100000EB0A01009005984144401A0590E0032A
:103C200006D45B462146179A059800F0B3F905447F
:103C3000002706E001A85A46C05D179990476D1C01
:103C40007F1C4745F6DBE0030CD55B462146179AFF
:103C5000059800F09FF9054404E030205A46179972
:103C600090476D1C0099481E00900029F5DC08E083
:103C7000029802995A460078491C02911799904778
:103C80006D1CBAF10001AAF1010AF1DC65E1000046
:103C90000928010030313233343536373839616222
:103CA00063646566000000003031323334353637E6
:103CB00038394142434445460000000000F058F9BD
:103CC0000544761C307800287FF4ECAD19B0284606
:103CD000BDE8F08F620700D4062709F1070222F041
:103CE000070CFCE80223E14603F000485FEA080CF9
:103CF00002D00FF2702C0DE05FEA045C02D50FF2E7
:103D0000682C07E05FEAC47C02D00FF2602C01E06F
:103D1000AFF2700C4FF0FF3823F00043CDF850C0E5
:103D200065280CD006DC452809D046281DD0472838
:103D30003DD13DE0662818D067287ED138E00021CB
:103D4000112F01DB112000E0781CCDE9000106A94C
:103D50000EA8FFF7DDFCDDE90F010E9A03910021AB
:103D6000009207F1010A04914DE04FF000400097E6
:103D7000CDE9011006A90EA8FFF7CAFCDDE90F0284
:103D800003920E9B11990022DDF80CA0009304927F
:103D900011B9791C00EB010AB7EB0A0004D4C0F199
:103DA000FF3007F1010A0490AAEB0700019044E0FC
:103DB000012F00DA01270021112F01DD112000E081
:103DC0003846CDE9000106A90EA8FFF7A1FCDDE900
:103DD0000F010E9A0391002104910092BA46210727
:103DE0000CD40399514500DA8A46BAF1010F05DD7A
:103DF000009AAAF10101515C302908D0B84202DAD8
:103E000010F1040F06DA0121CDE9011015E0AAF145
:103E10000101E9E7002805DC049901440491AAEBBB
:103E2000000102E0411C514500DD8A460499401A18
:103E3000401C01904FF000400290200704D40198EC
:103E4000504501DBCDF8048000208DF84F0002982A
:103E50000DF14F07B0F1004F25D02B200E900298A6
:103E60004FF0020800280CDA404202902D200E90FC
:103E700007E00A210298FCF755FD3031029007F85F
:103E8000011DB8F10001A8F10108F2DC0298002838
:103E9000EFD1791E0E980870307800F0200040F0C5
:103EA000450007F8020D12A8C01B00F1070814987E
:103EB000007800B1012000EB0A01019801EBE071EC
:103EC00005984144401A401E0590E00306D45B4625
:103ED0002146179A059800F05DF80544149800787B
:103EE00018B15A46179990476D1CE00324D55B46DC
:103EF0002146179A059800F04DF805441CE00498F7
:103F0000002807DBDDE90301884203DD0098405CFF
:103F1000179901E0179930205A469047049805F107
:103F20000105401C04900198401E019004D12E20F0
:103F30005A46179990476D1CBAF10001AAF1010A7F
:103F4000DDDC05E017F8010B5A46179990476D1C08
:103F5000B8F10001A8F10108F4DC5B462146179A8C
:103F60000598ABE62D0000002B00000020000000AB
:103F70002DE9F041044600251E461746880404D466
:103F800005E039462020B0476D1C641EF9D528464F
:103F9000BDE8F0812DE9F041044600251E4690461B
:103FA000C80301D5302700E02027880404D505E0A8
:103FB00041463846B0476D1C641EF9D52846BDE819
:103FC000F081000010B56FF00400FEF7F1F80A4828
:103FD00000680A49B0FBF1F009490870084600780A
:103FE00000EB4001C1EBC0104FF6FF7101EAC000C9
:103FF0000449088010BD00000000002000127A0073
:10400000CA020020CC0200200146114A12884A430D
:104010004FF0E0235A6100229A611A46126942F079
:1040200001021A6100BF4FF0E022106900F00102A6
:104030001AB100F48032002AF5D04FF0E022126964
:1040400022F001024FF0E0231A6100229A617047CA
:10405000CC02002010B52448006828B9002023496C
:104060000860234908603EE01F480068012808D125
:10407000204800681D4908601F4800681C49086006
:1040800031E019480068022802D100F041F82AE026
:1040900015480068032802D100F0DAF823E012483E
:1040A0000068042802D100F073F91CE00E48006893
:1040B000052818D100231A461049114800F002FCC7
:1040C00000231A460D490F4800F0FCFB0E4800681B
:1040D00048B10E48006830B10C4A11780A4A10788D
:1040E0000722FDF7C7F810BD6C0000204801002032
:1040F0004C0100207001002074010020A69B443C6C
:10410000B4030020D4030020580100205C010020EB
:1041100010B54148007807287CD2DFE800F07B0426
:10412000192E43586D003D4903C9FCF7CBFB3C49B0
:1041300008603C4903C9FCF7C5FB3B490860022005
:10414000354908703949098888B2FFF75DFF61E099
:10415000374903C9FCF7B6FB31490860354903C943
:10416000FCF7B0FB304908603049098888B2FFF796
:104170004BFF0320284908704CE02F4903C9FCF786
:10418000A1FB274908602D4903C9FCF79BFB264981
:1041900008602649098888B2FFF736FF04201E49C7
:1041A000087037E0264903C9FCF78CFB1C490860FE
:1041B000244903C9FCF786FB1B4908601B49098891
:1041C00088B2FFF721FF05201349087022E0134948
:1041D00003C9FCF777FB12490860124903C9FCF7D1
:1041E00071FB114908601149098888B2FFF70CFF7B
:1041F0000620094908700DE0134800680849086066
:1042000012480068084908600849098888B2FFF721
:10421000FBFE00BF00BF10BD11010020780100208F
:1042200048010020800100204C01002030000020C7
:10423000880100209001002098010020A0010020AA
:10424000A8010020B00100207001002074010020AE
:1042500010B54048007807287AD2DFE800F07904EA
:10426000192E43586D003C4903C9FCF72BFB3B4911
:1042700008603B4903C9FCF725FB3A4908603A4905
:10428000098888B2FFF7C0FE0220324908705FE05B
:10429000364903C9FCF716FB30490860344903C9A5
:1042A000FCF710FB2F4908602F49098888B2FFF7F7
:1042B000ABFE0320274908704AE02E4903C9FCF7EA
:1042C00001FB264908602C4903C9FCF7FBFA254984
:1042D00008602549098888B2FFF796FE04201D4929
:1042E000087035E0254903C9FCF7ECFA1B49086062
:1042F000234903C9FCF7E6FA1A4908601A490988F4
:1043000088B2FFF781FE05201249087020E01D49A0
:1043100003C9FCF7D7FA11490860114903C9FCF732
:10432000D1FA104908601049098888B2FFF76CFE7D
:104330000620084908700BE0134800680749086028
:10434000124800680749086007200249087000BF4A
:1043500000BF10BD12010020B8010020480100205C
:10436000C00100204C01002034000020C8010020C2
:10437000D0010020D8010020E0010020E801002049
:10438000F0010020F80100207001002074010020DD
:104390002DE9F04F89B03221DC48FFF75AF8DC49AB
:1043A0000868FCF764FADB4A03C2D9494868FCF79D
:1043B0005EFAD94A03C2D6498868FCF758FAD74A48
:1043C00003C2D349C868FCF752FAD54A03C2D049A0
:1043D0000869FCF74CFAD34A03C2CD494869D2496F
:1043E000FBF794FF0546FCF742FAD04A03C2C849DE
:1043F00088694FF08141FBF789FF0546FCF737FAE2
:10440000CB4A03C2C249C869FCF731FAC94A03C2A0
:1044100000244FF00F09C04903C9FCF70FFAC5B2D9
:10442000BC4903C9FCF70AFAC6B229463046FCF774
:10443000E5FE00BF53E02046FCF7C6F90746884674
:104440004846FCF7C1F982468B46B348B9490CC8C7
:1044500003C9FCF7C4F852465B46CDE90001FCF7FE
:1044600036F93A464346CDE90201FCF7BEF8054667
:10447000A9480CC82846FCF711F8CDE90401FCF75F
:10448000DDF9C0B207902046FCF79EF905460E46BE
:104490004846FCF799F9CDE900019E48A4490CC8AB
:1044A00003C9FCF79CF80746DDE90023FCF70FF988
:1044B0002A463346CDE90201FCF797F8CDE904011D
:1044C00094480CC80498FBF7E9FF8246FCF7B6F95C
:1044D000C0B206900799FCF791FE601C84B24C456F
:1044E000A9DB002452E02046FCF76EF905460E4693
:1044F0004846FCF769F9CDE900018E488B490CC8A4
:1045000003C9FCF76CF80746DDE90023FCF7DFF888
:104510002A463346CDE90201FCF767F8CDE90401EC
:1045200084480CC80498FBF7B9FF8246FCF786F96B
:10453000C0B207902046FCF747F9CDE90201484692
:10454000FCF742F982468B46794876490CC803C984
:10455000FCF745F852465B46CDE90001FCF7B7F899
:104560000746DDE90223FCF740F8054670480CC811
:104570002846FBF793FFCDE90401FCF75FF9C0B2D1
:1045800006900799FCF73AFE601C84B24C45AADB02
:10459000002451E02046FCF717F9CDE90201484616
:1045A000FCF712F982468B4660485D490CC803C986
:1045B000FCF715F8054652465B46FCF788F8CDE94E
:1045C0000001DDE90223FCF710F8CDE904015748AA
:1045D0000CC80498FBF762FF0746FCF72FF9C0B23E
:1045E00007902046FCF7F0F8CDE904014846FCF7B7
:1045F000EBF8CDE902014B4848490CC803C9FBF769
:10460000EEFFCDE90001DDE90223FCF760F8054685
:10461000DDE90423FBF7E9FF074642480CC83846AA
:10462000FBF73CFF8246FCF709F9C0B206900799F8
:10463000FCF7E4FD601C84B24C45ABDB002452E087
:104640002046FCF7C1F8CDE900014846FCF7BCF86C
:1046500082468B46324830490CC803C9FBF7BFFF7E
:10466000074652465B46FCF732F80546DDE9002373
:10467000FBF7BBFFCDE9020129480CC80298FBF704
:104680000DFFCDE90401FCF7D9F8C0B20790204630
:10469000FCF79AF882468B464846FCF795F8CDE938
:1046A00002011E481B490CC803C9FBF798FFCDE95E
:1046B0000001DDE90223FCF70AF8054652465B4695
:1046C000FBF793FF074615480CC83846FBF7E6FE94
:1046D000CDE90401FCF7B2F8C0B206900799FCF7E7
:1046E0008DFD601C84B24C45AADB0B4903C9FCF765
:1046F000A5F8C5B2074903C9FCF7A0F8C6B2294618
:104700003046FCF77BFD09B0BDE8F08F0044004067
:10471000D40200203802002040020020280200209D
:10472000300200201802002000004040200200203B
:10473000080200201002002070B504460D46E1B2C8
:104740000548FEF786FE00BF40210348FEF7B4FD92
:104750000128F9D1204670BD003801402DE9F0470D
:1047600004460D466560D4E90001FBF721FEA06018
:10477000A168E069FBF7CAFDE061D4E90201FBF73B
:1047800017FE8046A169FBF719FE0646E1696069DC
:10479000FBF714FE8046A1682069FBF70FFE8146F7
:1047A0004146FBF7B3FD07463146FBF7AFFD6060BE
:1047B000A068E0606068BDE8F0870000FCF7B0FD2D
:1047C00000231A462A492B4800F07CF800231A4699
:1047D0002749294800F076F80020FDF7FFFB27A0C5
:1047E000FEF776FF30212B48FEF733FE3FE0FFF760
:1047F00031FCFCF711FF28A202210120FDF739FA54
:1048000001232748082102681846FDF7DDF925A293
:1048100002210846FDF72DFA23498869FBF7FAFFC4
:1048200004460323224608210220FDF7CDF91FA2EA
:1048300002210320FDF71DFA1E480068FBF7D1FF97
:1048400004460423224608210320FDF7DFF91AA2BB
:1048500002210420FDF70DFA19480068FBF7C1FF9B
:1048600004460423224608211846FDF7CFF9BEE787
:10487000BC74933CB4030020D40300205F416C6CF3
:10488000496E697420436F6D706C6574655F0D0AC5
:1048900000000000004400406D6F64653A000000B5
:1048A0006C00002078303A00D40200205265644346
:1048B000783A00004801002052656443793A0000CC
:1048C0004C010020016142618361704701607047C3
:1048D00000000000000000000000000000000000D8
:1048E000000000F80000000000000033300000006D
:1048F00000100C06100C0600000000000000000074
:1049000040C07840C0784000043F04043F040400E5
:10491000007088FC08300000001820FF211E0000F5
:10492000F008F000E018000000211C031E211E000A
:1049300000F00888700000001E2123241927211090
:1049400010160E0000000000000000000000000033
:10495000000000E0180402000000000718204000DA
:1049600000020418E00000000040201807000000CA
:10497000404080F0804040000202010F010202002E
:10498000000000F0000000000101011F0101010012
:10499000000000000000000080B070000000000077
:1049A0000000000000000000000101010101010100
:1049B0000000000000000000003030000000000097
:1049C000000000008060180400601806010000006C
:1049D00000E010080810E000000F102020100F0069
:1049E000001010F8000000000020203F20200000F0
:1049F0000070080808887000003028242221300048
:104A000000300888884830000018202020110E004F
:104A10000000C02010F8000000070424243F2400F8
:104A200000F80888880808000019212020110E00CD
:104A300000E0108888180000000F112020110E00DF
:104A400000380808C83808000000003F00000000D7
:104A50000070880808887000001C222121221C0098
:104A600000E010080810E0000000312222110F00C1
:104A7000000000C0C0000000000000303000000056
:104A800000000080000000000000806000000000C6
:104A900000008040201008000001020408102000DF
:104AA000404040404040400004040404040404002A
:104AB00000081020408000000020100804020100BF
:104AC000007048080808F0000000003036010000BF
:104AD000C030C828E810E0000718272423140B0072
:104AE0000000C038E0000000203C230202273820EC
:104AF00008F8888888700000203F202020110E00D0
:104B0000C0300808080838000718202020100800C6
:104B100008F808080810E000203F202020100F00AF
:104B200008F88888E8081000203F2020232018007B
:104B300008F88888E8081000203F200003000000E3
:104B4000C03008080838000007182020221E020084
:104B500008F808000008F808203F210101213F2043
:104B6000000808F8080800000020203F202000006E
:104B700000000808F8080800C08080807F0000005E
:104B800008F888C028180800203F20012638200097
:104B900008F8080000000000203F202020203000FE
:104BA00008F8F800F8F80800203F003F003F200018
:104BB00008F830C00008F808203F200007183F0020
:104BC000E01008080810E0000F10202020100F004F
:104BD00008F808080808F000203F21010101000042
:104BE000E01008080810E0000F18242438504F0087
:104BF00008F8888888887000203F2000030C302047
:104C000000708808080838000038202121221C0084
:104C1000180808F8080818000000203F20000000CD
:104C200008F808000008F808001F202020201F00B6
:104C30000878880000C83808000007380E01000016
:104C4000F80800F80008F800033C0700073C0300E0
:104C5000081868808068180820302C03032C302046
:104C60000838C800C83808000000203F20000000B5
:104C700010080808C838080020382621202018000D
:104C8000000000FE020202000000007F40404000E1
:104C9000000C30C000000000000000010638C00019
:104CA00000020202FE000000004040407F000000C1
:104CB00000000402020204000000000000000000E6
:104CC00000000000000000008080808080808080E4
:104CD00000020204000000000000000000000000CC
:104CE00000008080808000000019242222223F20C2
:104CF00008F8008080000000003F112020110E0005
:104D00000000008080800000000E11202020110093
:104D1000000000808088F800000E112020103F2045
:104D20000000808080800000001F222222221300C9
:104D3000008080F0888888180020203F2020000014
:104D40000000808080808000006B949494936000C9
:104D500008F8008080800000203F210000203F20D4
:104D600000809898000000000020203F20200000D4
:104D7000000000809898000000C08080807F0000C4
:104D800008F8000080808000203F24022D302000A1
:104D9000000808F8000000000020203F202000004C
:104DA0008080808080808000203F20003F20003F66
:104DB0008080008080800000203F210000203F2074
:104DC0000000808080800000001F202020201F0025
:104DD000808000808000000080FFA12020110E0054
:104DE0000000008080808000000E112020A0FF8045
:104DF000808080008080800020203F2120000100F2
:104E00000000808080808000003324242424190046
:104E1000008080E0808000000000001F2020000053
:104E20008080000000808000001F202020103F2094
:104E3000808080000080808000010E300806010024
:104E400080800080008080800F300C030C300F00C9
:104E500000808000808080000020312E0E312000F4
:104E6000808080000080808080818E701806010024
:104E700000808080808080000021302C2221300042
:104E800000000000807C020200000000003F404063
:104E900000000000FF00000000000000FF00000014
:104EA0000002027C800000000040403F0000000043
:104EB00000060101020204040000000000000000DE
:104EC0003031323334353637383941424344454640
:104ED00000000000000054545220524547474553FB
:104EE00000DDDDDDDDDCBBBBDDDDDDDDDDDDDDDD14
:104EF000DD98888888888888887777777777888822
:104F0000888555555666666666666666666668880E
:104F1000888333333222222222222222222228880C
:104F20008D000000444F000800000020D402000063
:104F3000740F0008D84F0008D40200200C100000A5
:104F40000037000811845125026809010203040694
:104F50000708090C6910850204060823A406231417
:104F60000505282EE34D3E4BF4010419030111926F
:104F7000A063C040134040BC803B4404714BF2121C
:104F8000043214290401694B80569C3908A3803FE0
:104F90007AFA9C012A2B50C1ED49504A4F08115A08
:104FA0004E604A4308115A4D085A40184A52285B2D
:104FB00040503859105B8047085A50304AF09C6A7C
:104FC000C0105A14605A22085A48085A1C38DA4548
:084FD0004001B01A01010112B9
:04000005080000ED02
:00000001FF
